{
  "_format": "hh-sol-artifact-1",
  "contractName": "AnkyTest6",
  "sourceName": "contracts/AnkyTest6.sol",
  "abi": [
    {
      "inputs": [],
      "stateMutability": "nonpayable",
      "type": "constructor"
    },
    {
      "anonymous": false,
      "inputs": [
        {
          "indexed": true,
          "internalType": "address",
          "name": "owner",
          "type": "address"
        },
        {
          "indexed": true,
          "internalType": "address",
          "name": "approved",
          "type": "address"
        },
        {
          "indexed": true,
          "internalType": "uint256",
          "name": "tokenId",
          "type": "uint256"
        }
      ],
      "name": "Approval",
      "type": "event"
    },
    {
      "anonymous": false,
      "inputs": [
        {
          "indexed": true,
          "internalType": "address",
          "name": "owner",
          "type": "address"
        },
        {
          "indexed": true,
          "internalType": "address",
          "name": "operator",
          "type": "address"
        },
        {
          "indexed": false,
          "internalType": "bool",
          "name": "approved",
          "type": "bool"
        }
      ],
      "name": "ApprovalForAll",
      "type": "event"
    },
    {
      "anonymous": false,
      "inputs": [
        {
          "indexed": true,
          "internalType": "address",
          "name": "from",
          "type": "address"
        },
        {
          "indexed": true,
          "internalType": "address",
          "name": "to",
          "type": "address"
        },
        {
          "indexed": true,
          "internalType": "uint256",
          "name": "tokenId",
          "type": "uint256"
        }
      ],
      "name": "Transfer",
      "type": "event"
    },
    {
      "inputs": [],
      "name": "MAX_SUPPLY",
      "outputs": [
        {
          "internalType": "uint256",
          "name": "",
          "type": "uint256"
        }
      ],
      "stateMutability": "view",
      "type": "function"
    },
    {
      "inputs": [],
      "name": "PRICE",
      "outputs": [
        {
          "internalType": "uint256",
          "name": "",
          "type": "uint256"
        }
      ],
      "stateMutability": "view",
      "type": "function"
    },
    {
      "inputs": [
        {
          "internalType": "address",
          "name": "to",
          "type": "address"
        },
        {
          "internalType": "uint256",
          "name": "tokenId",
          "type": "uint256"
        }
      ],
      "name": "approve",
      "outputs": [],
      "stateMutability": "nonpayable",
      "type": "function"
    },
    {
      "inputs": [
        {
          "internalType": "address",
          "name": "owner",
          "type": "address"
        }
      ],
      "name": "balanceOf",
      "outputs": [
        {
          "internalType": "uint256",
          "name": "",
          "type": "uint256"
        }
      ],
      "stateMutability": "view",
      "type": "function"
    },
    {
      "inputs": [
        {
          "internalType": "uint256",
          "name": "tokenId",
          "type": "uint256"
        }
      ],
      "name": "getApproved",
      "outputs": [
        {
          "internalType": "address",
          "name": "",
          "type": "address"
        }
      ],
      "stateMutability": "view",
      "type": "function"
    },
    {
      "inputs": [
        {
          "internalType": "address",
          "name": "owner",
          "type": "address"
        },
        {
          "internalType": "address",
          "name": "operator",
          "type": "address"
        }
      ],
      "name": "isApprovedForAll",
      "outputs": [
        {
          "internalType": "bool",
          "name": "",
          "type": "bool"
        }
      ],
      "stateMutability": "view",
      "type": "function"
    },
    {
      "inputs": [],
      "name": "mint",
      "outputs": [],
      "stateMutability": "payable",
      "type": "function"
    },
    {
      "inputs": [],
      "name": "name",
      "outputs": [
        {
          "internalType": "string",
          "name": "",
          "type": "string"
        }
      ],
      "stateMutability": "view",
      "type": "function"
    },
    {
      "inputs": [
        {
          "internalType": "uint256",
          "name": "tokenId",
          "type": "uint256"
        }
      ],
      "name": "ownerOf",
      "outputs": [
        {
          "internalType": "address",
          "name": "",
          "type": "address"
        }
      ],
      "stateMutability": "view",
      "type": "function"
    },
    {
      "inputs": [
        {
          "internalType": "address",
          "name": "from",
          "type": "address"
        },
        {
          "internalType": "address",
          "name": "to",
          "type": "address"
        },
        {
          "internalType": "uint256",
          "name": "tokenId",
          "type": "uint256"
        }
      ],
      "name": "safeTransferFrom",
      "outputs": [],
      "stateMutability": "nonpayable",
      "type": "function"
    },
    {
      "inputs": [
        {
          "internalType": "address",
          "name": "from",
          "type": "address"
        },
        {
          "internalType": "address",
          "name": "to",
          "type": "address"
        },
        {
          "internalType": "uint256",
          "name": "tokenId",
          "type": "uint256"
        },
        {
          "internalType": "bytes",
          "name": "data",
          "type": "bytes"
        }
      ],
      "name": "safeTransferFrom",
      "outputs": [],
      "stateMutability": "nonpayable",
      "type": "function"
    },
    {
      "inputs": [
        {
          "internalType": "address",
          "name": "operator",
          "type": "address"
        },
        {
          "internalType": "bool",
          "name": "approved",
          "type": "bool"
        }
      ],
      "name": "setApprovalForAll",
      "outputs": [],
      "stateMutability": "nonpayable",
      "type": "function"
    },
    {
      "inputs": [
        {
          "internalType": "bytes4",
          "name": "interfaceId",
          "type": "bytes4"
        }
      ],
      "name": "supportsInterface",
      "outputs": [
        {
          "internalType": "bool",
          "name": "",
          "type": "bool"
        }
      ],
      "stateMutability": "view",
      "type": "function"
    },
    {
      "inputs": [],
      "name": "symbol",
      "outputs": [
        {
          "internalType": "string",
          "name": "",
          "type": "string"
        }
      ],
      "stateMutability": "view",
      "type": "function"
    },
    {
      "inputs": [
        {
          "internalType": "uint256",
          "name": "tokenId",
          "type": "uint256"
        }
      ],
      "name": "tokenURI",
      "outputs": [
        {
          "internalType": "string",
          "name": "",
          "type": "string"
        }
      ],
      "stateMutability": "view",
      "type": "function"
    },
    {
      "inputs": [
        {
          "internalType": "address",
          "name": "from",
          "type": "address"
        },
        {
          "internalType": "address",
          "name": "to",
          "type": "address"
        },
        {
          "internalType": "uint256",
          "name": "tokenId",
          "type": "uint256"
        }
      ],
      "name": "transferFrom",
      "outputs": [],
      "stateMutability": "nonpayable",
      "type": "function"
    },
    {
      "inputs": [],
      "name": "withdraw",
      "outputs": [],
      "stateMutability": "nonpayable",
      "type": "function"
    }
  ],
  "bytecode": "0x60a060405260016006553480156200001657600080fd5b506040518060400160405280600481526020017f416e6b79000000000000000000000000000000000000000000000000000000008152506040518060400160405280600481526020017f414e4b590000000000000000000000000000000000000000000000000000000081525081600090805190602001906200009b929190620000f4565b508060019080519060200190620000b4929190620000f4565b5050503373ffffffffffffffffffffffffffffffffffffffff1660808173ffffffffffffffffffffffffffffffffffffffff1660601b8152505062000209565b8280546200010290620001d3565b90600052602060002090601f01602090048101928262000126576000855562000172565b82601f106200014157805160ff191683800117855562000172565b8280016001018555821562000172579182015b828111156200017157825182559160200191906001019062000154565b5b50905062000181919062000185565b5090565b5b80821115620001a057600081600090555060010162000186565b5090565b7f4e487b7100000000000000000000000000000000000000000000000000000000600052602260045260246000fd5b60006002820490506001821680620001ec57607f821691505b60208210811415620002035762000202620001a4565b5b50919050565b60805160601c612be96200022f6000396000818161092801526109bb0152612be96000f3fe6080604052600436106100fe5760003560e01c806342842e0e1161009557806395d89b411161006457806395d89b4114610314578063a22cb4651461033f578063b88d4fde14610368578063c87b56dd14610391578063e985e9c5146103ce576100fe565b806342842e0e146102465780636352211e1461026f57806370a08231146102ac5780638d859f3e146102e9576100fe565b80631249c58b116100d15780631249c58b146101d157806323b872dd146101db57806332cb6b0c146102045780633ccfd60b1461022f576100fe565b806301ffc9a71461010357806306fdde0314610140578063081812fc1461016b578063095ea7b3146101a8575b600080fd5b34801561010f57600080fd5b5061012a60048036038101906101259190611b79565b61040b565b6040516101379190611bc1565b60405180910390f35b34801561014c57600080fd5b506101556104ed565b6040516101629190611c75565b60405180910390f35b34801561017757600080fd5b50610192600480360381019061018d9190611ccd565b61057f565b60405161019f9190611d3b565b60405180910390f35b3480156101b457600080fd5b506101cf60048036038101906101ca9190611d82565b6105c5565b005b6101d96106dd565b005b3480156101e757600080fd5b5061020260048036038101906101fd9190611dc2565b6108c1565b005b34801561021057600080fd5b50610219610921565b6040516102269190611e24565b60405180910390f35b34801561023b57600080fd5b50610244610926565b005b34801561025257600080fd5b5061026d60048036038101906102689190611dc2565b610a23565b005b34801561027b57600080fd5b5061029660048036038101906102919190611ccd565b610a43565b6040516102a39190611d3b565b60405180910390f35b3480156102b857600080fd5b506102d360048036038101906102ce9190611e3f565b610aca565b6040516102e09190611e24565b60405180910390f35b3480156102f557600080fd5b506102fe610b82565b60405161030b9190611e24565b60405180910390f35b34801561032057600080fd5b50610329610b8c565b6040516103369190611c75565b60405180910390f35b34801561034b57600080fd5b5061036660048036038101906103619190611e98565b610c1e565b005b34801561037457600080fd5b5061038f600480360381019061038a919061200d565b610c34565b005b34801561039d57600080fd5b506103b860048036038101906103b39190611ccd565b610c96565b6040516103c59190611c75565b60405180910390f35b3480156103da57600080fd5b506103f560048036038101906103f09190612090565b610cfe565b6040516104029190611bc1565b60405180910390f35b60007f80ac58cd000000000000000000000000000000000000000000000000000000007bffffffffffffffffffffffffffffffffffffffffffffffffffffffff1916827bffffffffffffffffffffffffffffffffffffffffffffffffffffffff191614806104d657507f5b5e139f000000000000000000000000000000000000000000000000000000007bffffffffffffffffffffffffffffffffffffffffffffffffffffffff1916827bffffffffffffffffffffffffffffffffffffffffffffffffffffffff1916145b806104e657506104e582610d92565b5b9050919050565b6060600080546104fc906120ff565b80601f0160208091040260200160405190810160405280929190818152602001828054610528906120ff565b80156105755780601f1061054a57610100808354040283529160200191610575565b820191906000526020600020905b81548152906001019060200180831161055857829003601f168201915b5050505050905090565b600061058a82610dfc565b6004600083815260200190815260200160002060009054906101000a900473ffffffffffffffffffffffffffffffffffffffff169050919050565b60006105d082610a43565b90508073ffffffffffffffffffffffffffffffffffffffff168373ffffffffffffffffffffffffffffffffffffffff161415610641576040517f08c379a0000000000000000000000000000000000000000000000000000000008152600401610638906121a3565b60405180910390fd5b8073ffffffffffffffffffffffffffffffffffffffff16610660610e47565b73ffffffffffffffffffffffffffffffffffffffff16148061068f575061068e81610689610e47565b610cfe565b5b6106ce576040517f08c379a00000000000000000000000000000000000000000000000000000000081526004016106c590612235565b60405180910390fd5b6106d88383610e4f565b505050565b605860065410610722576040517f08c379a0000000000000000000000000000000000000000000000000000000008152600401610719906122c7565b60405180910390fd5b34655af3107a4000111561076b576040517f08c379a000000000000000000000000000000000000000000000000000000000815260040161076290612333565b60405180910390fd5b600760003373ffffffffffffffffffffffffffffffffffffffff1673ffffffffffffffffffffffffffffffffffffffff16815260200190815260200160002060009054906101000a900460ff16156107f8576040517f08c379a00000000000000000000000000000000000000000000000000000000081526004016107ef906123c5565b60405180910390fd5b600061080333610aca565b14610843576040517f08c379a000000000000000000000000000000000000000000000000000000000815260040161083a90612457565b60405180910390fd5b61084f33600654610f08565b6001600760003373ffffffffffffffffffffffffffffffffffffffff1673ffffffffffffffffffffffffffffffffffffffff16815260200190815260200160002060006101000a81548160ff021916908315150217905550600660008154809291906108ba906124a6565b9190505550565b6108d26108cc610e47565b82611126565b610911576040517f08c379a000000000000000000000000000000000000000000000000000000000815260040161090890612561565b60405180910390fd5b61091c8383836111bb565b505050565b605881565b7f000000000000000000000000000000000000000000000000000000000000000073ffffffffffffffffffffffffffffffffffffffff163373ffffffffffffffffffffffffffffffffffffffff16146109b4576040517f08c379a00000000000000000000000000000000000000000000000000000000081526004016109ab906125f3565b60405180910390fd5b60004790507f000000000000000000000000000000000000000000000000000000000000000073ffffffffffffffffffffffffffffffffffffffff166108fc829081150290604051600060405180830381858888f19350505050158015610a1f573d6000803e3d6000fd5b5050565b610a3e83838360405180602001604052806000815250610c34565b505050565b600080610a4f836114b5565b9050600073ffffffffffffffffffffffffffffffffffffffff168173ffffffffffffffffffffffffffffffffffffffff161415610ac1576040517f08c379a0000000000000000000000000000000000000000000000000000000008152600401610ab89061265f565b60405180910390fd5b80915050919050565b60008073ffffffffffffffffffffffffffffffffffffffff168273ffffffffffffffffffffffffffffffffffffffff161415610b3b576040517f08c379a0000000000000000000000000000000000000000000000000000000008152600401610b32906126f1565b60405180910390fd5b600360008373ffffffffffffffffffffffffffffffffffffffff1673ffffffffffffffffffffffffffffffffffffffff168152602001908152602001600020549050919050565b655af3107a400081565b606060018054610b9b906120ff565b80601f0160208091040260200160405190810160405280929190818152602001828054610bc7906120ff565b8015610c145780601f10610be957610100808354040283529160200191610c14565b820191906000526020600020905b815481529060010190602001808311610bf757829003601f168201915b5050505050905090565b610c30610c29610e47565b83836114f2565b5050565b610c45610c3f610e47565b83611126565b610c84576040517f08c379a0000000000000000000000000000000000000000000000000000000008152600401610c7b90612561565b60405180910390fd5b610c908484848461165f565b50505050565b6060610ca182610dfc565b6000610cab6116bb565b90506000815111610ccb5760405180602001604052806000815250610cf6565b80610cd5846116db565b604051602001610ce692919061274d565b6040516020818303038152906040525b915050919050565b6000600560008473ffffffffffffffffffffffffffffffffffffffff1673ffffffffffffffffffffffffffffffffffffffff16815260200190815260200160002060008373ffffffffffffffffffffffffffffffffffffffff1673ffffffffffffffffffffffffffffffffffffffff16815260200190815260200160002060009054906101000a900460ff16905092915050565b60007f01ffc9a7000000000000000000000000000000000000000000000000000000007bffffffffffffffffffffffffffffffffffffffffffffffffffffffff1916827bffffffffffffffffffffffffffffffffffffffffffffffffffffffff1916149050919050565b610e05816117b3565b610e44576040517f08c379a0000000000000000000000000000000000000000000000000000000008152600401610e3b9061265f565b60405180910390fd5b50565b600033905090565b816004600083815260200190815260200160002060006101000a81548173ffffffffffffffffffffffffffffffffffffffff021916908373ffffffffffffffffffffffffffffffffffffffff160217905550808273ffffffffffffffffffffffffffffffffffffffff16610ec283610a43565b73ffffffffffffffffffffffffffffffffffffffff167f8c5be1e5ebec7d5bd14f71427d1e84f3dd0314c0f7b2291e5b200ac8c7c3b92560405160405180910390a45050565b600073ffffffffffffffffffffffffffffffffffffffff168273ffffffffffffffffffffffffffffffffffffffff161415610f78576040517f08c379a0000000000000000000000000000000000000000000000000000000008152600401610f6f906127bd565b60405180910390fd5b610f81816117b3565b15610fc1576040517f08c379a0000000000000000000000000000000000000000000000000000000008152600401610fb890612829565b60405180910390fd5b610fcf6000838360016117f4565b610fd8816117b3565b15611018576040517f08c379a000000000000000000000000000000000000000000000000000000000815260040161100f90612829565b60405180910390fd5b6001600360008473ffffffffffffffffffffffffffffffffffffffff1673ffffffffffffffffffffffffffffffffffffffff16815260200190815260200160002060008282540192505081905550816002600083815260200190815260200160002060006101000a81548173ffffffffffffffffffffffffffffffffffffffff021916908373ffffffffffffffffffffffffffffffffffffffff160217905550808273ffffffffffffffffffffffffffffffffffffffff16600073ffffffffffffffffffffffffffffffffffffffff167fddf252ad1be2c89b69c2b068fc378daa952ba7f163c4a11628f55a4df523b3ef60405160405180910390a46111226000838360016117fa565b5050565b60008061113283610a43565b90508073ffffffffffffffffffffffffffffffffffffffff168473ffffffffffffffffffffffffffffffffffffffff16148061117457506111738185610cfe565b5b806111b257508373ffffffffffffffffffffffffffffffffffffffff1661119a8461057f565b73ffffffffffffffffffffffffffffffffffffffff16145b91505092915050565b8273ffffffffffffffffffffffffffffffffffffffff166111db82610a43565b73ffffffffffffffffffffffffffffffffffffffff1614611231576040517f08c379a0000000000000000000000000000000000000000000000000000000008152600401611228906128bb565b60405180910390fd5b600073ffffffffffffffffffffffffffffffffffffffff168273ffffffffffffffffffffffffffffffffffffffff1614156112a1576040517f08c379a00000000000000000000000000000000000000000000000000000000081526004016112989061294d565b60405180910390fd5b6112ae83838360016117f4565b8273ffffffffffffffffffffffffffffffffffffffff166112ce82610a43565b73ffffffffffffffffffffffffffffffffffffffff1614611324576040517f08c379a000000000000000000000000000000000000000000000000000000000815260040161131b906128bb565b60405180910390fd5b6004600082815260200190815260200160002060006101000a81549073ffffffffffffffffffffffffffffffffffffffff02191690556001600360008573ffffffffffffffffffffffffffffffffffffffff1673ffffffffffffffffffffffffffffffffffffffff168152602001908152602001600020600082825403925050819055506001600360008473ffffffffffffffffffffffffffffffffffffffff1673ffffffffffffffffffffffffffffffffffffffff16815260200190815260200160002060008282540192505081905550816002600083815260200190815260200160002060006101000a81548173ffffffffffffffffffffffffffffffffffffffff021916908373ffffffffffffffffffffffffffffffffffffffff160217905550808273ffffffffffffffffffffffffffffffffffffffff168473ffffffffffffffffffffffffffffffffffffffff167fddf252ad1be2c89b69c2b068fc378daa952ba7f163c4a11628f55a4df523b3ef60405160405180910390a46114b083838360016117fa565b505050565b60006002600083815260200190815260200160002060009054906101000a900473ffffffffffffffffffffffffffffffffffffffff169050919050565b8173ffffffffffffffffffffffffffffffffffffffff168373ffffffffffffffffffffffffffffffffffffffff161415611561576040517f08c379a0000000000000000000000000000000000000000000000000000000008152600401611558906129b9565b60405180910390fd5b80600560008573ffffffffffffffffffffffffffffffffffffffff1673ffffffffffffffffffffffffffffffffffffffff16815260200190815260200160002060008473ffffffffffffffffffffffffffffffffffffffff1673ffffffffffffffffffffffffffffffffffffffff16815260200190815260200160002060006101000a81548160ff0219169083151502179055508173ffffffffffffffffffffffffffffffffffffffff168373ffffffffffffffffffffffffffffffffffffffff167f17307eab39ab6107e8899845ad3d59bd9653f200f220920489ca2b5937696c31836040516116529190611bc1565b60405180910390a3505050565b61166a8484846111bb565b61167684848484611800565b6116b5576040517f08c379a00000000000000000000000000000000000000000000000000000000081526004016116ac90612a4b565b60405180910390fd5b50505050565b6060604051806060016040528060368152602001612b7e60369139905090565b6060600060016116ea84611997565b01905060008167ffffffffffffffff81111561170957611708611ee2565b5b6040519080825280601f01601f19166020018201604052801561173b5781602001600182028036833780820191505090505b509050600082602001820190505b6001156117a8578080600190039150507f3031323334353637383961626364656600000000000000000000000000000000600a86061a8153600a858161179257611791612a6b565b5b04945060008514156117a3576117a8565b611749565b819350505050919050565b60008073ffffffffffffffffffffffffffffffffffffffff166117d5836114b5565b73ffffffffffffffffffffffffffffffffffffffff1614159050919050565b50505050565b50505050565b60006118218473ffffffffffffffffffffffffffffffffffffffff16611aea565b1561198a578373ffffffffffffffffffffffffffffffffffffffff1663150b7a0261184a610e47565b8786866040518563ffffffff1660e01b815260040161186c9493929190612aef565b602060405180830381600087803b15801561188657600080fd5b505af19250505080156118b757506040513d601f19601f820116820180604052508101906118b49190612b50565b60015b61193a573d80600081146118e7576040519150601f19603f3d011682016040523d82523d6000602084013e6118ec565b606091505b50600081511415611932576040517f08c379a000000000000000000000000000000000000000000000000000000000815260040161192990612a4b565b60405180910390fd5b805181602001fd5b63150b7a0260e01b7bffffffffffffffffffffffffffffffffffffffffffffffffffffffff1916817bffffffffffffffffffffffffffffffffffffffffffffffffffffffff19161491505061198f565b600190505b949350505050565b600080600090507a184f03e93ff9f4daa797ed6e38ed64bf6a1f01000000000000000083106119f5577a184f03e93ff9f4daa797ed6e38ed64bf6a1f01000000000000000083816119eb576119ea612a6b565b5b0492506040810190505b6d04ee2d6d415b85acef81000000008310611a32576d04ee2d6d415b85acef81000000008381611a2857611a27612a6b565b5b0492506020810190505b662386f26fc100008310611a6157662386f26fc100008381611a5757611a56612a6b565b5b0492506010810190505b6305f5e1008310611a8a576305f5e1008381611a8057611a7f612a6b565b5b0492506008810190505b6127108310611aaf576127108381611aa557611aa4612a6b565b5b0492506004810190505b60648310611ad25760648381611ac857611ac7612a6b565b5b0492506002810190505b600a8310611ae1576001810190505b80915050919050565b6000808273ffffffffffffffffffffffffffffffffffffffff163b119050919050565b6000604051905090565b600080fd5b600080fd5b60007fffffffff0000000000000000000000000000000000000000000000000000000082169050919050565b611b5681611b21565b8114611b6157600080fd5b50565b600081359050611b7381611b4d565b92915050565b600060208284031215611b8f57611b8e611b17565b5b6000611b9d84828501611b64565b91505092915050565b60008115159050919050565b611bbb81611ba6565b82525050565b6000602082019050611bd66000830184611bb2565b92915050565b600081519050919050565b600082825260208201905092915050565b60005b83811015611c16578082015181840152602081019050611bfb565b83811115611c25576000848401525b50505050565b6000601f19601f8301169050919050565b6000611c4782611bdc565b611c518185611be7565b9350611c61818560208601611bf8565b611c6a81611c2b565b840191505092915050565b60006020820190508181036000830152611c8f8184611c3c565b905092915050565b6000819050919050565b611caa81611c97565b8114611cb557600080fd5b50565b600081359050611cc781611ca1565b92915050565b600060208284031215611ce357611ce2611b17565b5b6000611cf184828501611cb8565b91505092915050565b600073ffffffffffffffffffffffffffffffffffffffff82169050919050565b6000611d2582611cfa565b9050919050565b611d3581611d1a565b82525050565b6000602082019050611d506000830184611d2c565b92915050565b611d5f81611d1a565b8114611d6a57600080fd5b50565b600081359050611d7c81611d56565b92915050565b60008060408385031215611d9957611d98611b17565b5b6000611da785828601611d6d565b9250506020611db885828601611cb8565b9150509250929050565b600080600060608486031215611ddb57611dda611b17565b5b6000611de986828701611d6d565b9350506020611dfa86828701611d6d565b9250506040611e0b86828701611cb8565b9150509250925092565b611e1e81611c97565b82525050565b6000602082019050611e396000830184611e15565b92915050565b600060208284031215611e5557611e54611b17565b5b6000611e6384828501611d6d565b91505092915050565b611e7581611ba6565b8114611e8057600080fd5b50565b600081359050611e9281611e6c565b92915050565b60008060408385031215611eaf57611eae611b17565b5b6000611ebd85828601611d6d565b9250506020611ece85828601611e83565b9150509250929050565b600080fd5b600080fd5b7f4e487b7100000000000000000000000000000000000000000000000000000000600052604160045260246000fd5b611f1a82611c2b565b810181811067ffffffffffffffff82111715611f3957611f38611ee2565b5b80604052505050565b6000611f4c611b0d565b9050611f588282611f11565b919050565b600067ffffffffffffffff821115611f7857611f77611ee2565b5b611f8182611c2b565b9050602081019050919050565b82818337600083830152505050565b6000611fb0611fab84611f5d565b611f42565b905082815260208101848484011115611fcc57611fcb611edd565b5b611fd7848285611f8e565b509392505050565b600082601f830112611ff457611ff3611ed8565b5b8135612004848260208601611f9d565b91505092915050565b6000806000806080858703121561202757612026611b17565b5b600061203587828801611d6d565b945050602061204687828801611d6d565b935050604061205787828801611cb8565b925050606085013567ffffffffffffffff81111561207857612077611b1c565b5b61208487828801611fdf565b91505092959194509250565b600080604083850312156120a7576120a6611b17565b5b60006120b585828601611d6d565b92505060206120c685828601611d6d565b9150509250929050565b7f4e487b7100000000000000000000000000000000000000000000000000000000600052602260045260246000fd5b6000600282049050600182168061211757607f821691505b6020821081141561212b5761212a6120d0565b5b50919050565b7f4552433732313a20617070726f76616c20746f2063757272656e74206f776e6560008201527f7200000000000000000000000000000000000000000000000000000000000000602082015250565b600061218d602183611be7565b915061219882612131565b604082019050919050565b600060208201905081810360008301526121bc81612180565b9050919050565b7f4552433732313a20617070726f76652063616c6c6572206973206e6f7420746f60008201527f6b656e206f776e6572206f7220617070726f76656420666f7220616c6c000000602082015250565b600061221f603d83611be7565b915061222a826121c3565b604082019050919050565b6000602082019050818103600083015261224e81612212565b9050919050565b7f54686520416e6b792047656e6573697320436f6c6c656374696f6e206973206660008201527f756c6c79206d696e746564206f75740000000000000000000000000000000000602082015250565b60006122b1602f83611be7565b91506122bc82612255565b604082019050919050565b600060208201905081810360008301526122e0816122a4565b9050919050565b7f4574682076616c75652073656e7420697320696e636f72726563740000000000600082015250565b600061231d601b83611be7565b9150612328826122e7565b602082019050919050565b6000602082019050818103600083015261234c81612310565b9050919050565b7f54686973206164647265737320616c7265616479206d696e74656420616e204160008201527f6e6b790000000000000000000000000000000000000000000000000000000000602082015250565b60006123af602383611be7565b91506123ba82612353565b604082019050919050565b600060208201905081810360008301526123de816123a2565b9050919050565b7f54686973206164647265737320616c726561647920636f6e7461696e7320616e60008201527f20416e6b79000000000000000000000000000000000000000000000000000000602082015250565b6000612441602583611be7565b915061244c826123e5565b604082019050919050565b6000602082019050818103600083015261247081612434565b9050919050565b7f4e487b7100000000000000000000000000000000000000000000000000000000600052601160045260246000fd5b60006124b182611c97565b91507fffffffffffffffffffffffffffffffffffffffffffffffffffffffffffffffff8214156124e4576124e3612477565b5b600182019050919050565b7f4552433732313a2063616c6c6572206973206e6f7420746f6b656e206f776e6560008201527f72206f7220617070726f76656400000000000000000000000000000000000000602082015250565b600061254b602d83611be7565b9150612556826124ef565b604082019050919050565b6000602082019050818103600083015261257a8161253e565b9050919050565b7f4f6e6c7920746865206465706c6f7965722063616e207265717565737420776960008201527f7468647261770000000000000000000000000000000000000000000000000000602082015250565b60006125dd602683611be7565b91506125e882612581565b604082019050919050565b6000602082019050818103600083015261260c816125d0565b9050919050565b7f4552433732313a20696e76616c696420746f6b656e2049440000000000000000600082015250565b6000612649601883611be7565b915061265482612613565b602082019050919050565b600060208201905081810360008301526126788161263c565b9050919050565b7f4552433732313a2061646472657373207a65726f206973206e6f74206120766160008201527f6c6964206f776e65720000000000000000000000000000000000000000000000602082015250565b60006126db602983611be7565b91506126e68261267f565b604082019050919050565b6000602082019050818103600083015261270a816126ce565b9050919050565b600081905092915050565b600061272782611bdc565b6127318185612711565b9350612741818560208601611bf8565b80840191505092915050565b6000612759828561271c565b9150612765828461271c565b91508190509392505050565b7f4552433732313a206d696e7420746f20746865207a65726f2061646472657373600082015250565b60006127a7602083611be7565b91506127b282612771565b602082019050919050565b600060208201905081810360008301526127d68161279a565b9050919050565b7f4552433732313a20746f6b656e20616c7265616479206d696e74656400000000600082015250565b6000612813601c83611be7565b915061281e826127dd565b602082019050919050565b6000602082019050818103600083015261284281612806565b9050919050565b7f4552433732313a207472616e736665722066726f6d20696e636f72726563742060008201527f6f776e6572000000000000000000000000000000000000000000000000000000602082015250565b60006128a5602583611be7565b91506128b082612849565b604082019050919050565b600060208201905081810360008301526128d481612898565b9050919050565b7f4552433732313a207472616e7366657220746f20746865207a65726f2061646460008201527f7265737300000000000000000000000000000000000000000000000000000000602082015250565b6000612937602483611be7565b9150612942826128db565b604082019050919050565b600060208201905081810360008301526129668161292a565b9050919050565b7f4552433732313a20617070726f766520746f2063616c6c657200000000000000600082015250565b60006129a3601983611be7565b91506129ae8261296d565b602082019050919050565b600060208201905081810360008301526129d281612996565b9050919050565b7f4552433732313a207472616e7366657220746f206e6f6e20455243373231526560008201527f63656976657220696d706c656d656e7465720000000000000000000000000000602082015250565b6000612a35603283611be7565b9150612a40826129d9565b604082019050919050565b60006020820190508181036000830152612a6481612a28565b9050919050565b7f4e487b7100000000000000000000000000000000000000000000000000000000600052601260045260246000fd5b600081519050919050565b600082825260208201905092915050565b6000612ac182612a9a565b612acb8185612aa5565b9350612adb818560208601611bf8565b612ae481611c2b565b840191505092915050565b6000608082019050612b046000830187611d2c565b612b116020830186611d2c565b612b1e6040830185611e15565b8181036060830152612b308184612ab6565b905095945050505050565b600081519050612b4a81611b4d565b92915050565b600060208284031215612b6657612b65611b17565b5b6000612b7484828501612b3b565b9150509291505056fe697066733a2f2f516d58776e743934506b5154577a636d646867754248703355767941477971387756326643424a42337936504b4c2fa264697066735822122095052c90703dcac755daa09706af531b4054fd8fd05fb51006745b72ec3495e664736f6c63430008080033",
  "linkReferences": {},
  "deployedLinkReferences": {}
}